{
  "_format": "hh-sol-artifact-1",
  "contractName": "BusBooking",
  "sourceName": "contracts/BusBooking.sol",
  "abi": [
    {
      "inputs": [
        {
          "internalType": "string",
          "name": "_name",
          "type": "string"
        },
        {
          "internalType": "string",
          "name": "_symbol",
          "type": "string"
        }
      ],
      "stateMutability": "nonpayable",
      "type": "constructor"
    },
    {
      "anonymous": false,
      "inputs": [
        {
          "indexed": true,
          "internalType": "address",
          "name": "owner",
          "type": "address"
        },
        {
          "indexed": true,
          "internalType": "address",
          "name": "approved",
          "type": "address"
        },
        {
          "indexed": true,
          "internalType": "uint256",
          "name": "tokenId",
          "type": "uint256"
        }
      ],
      "name": "Approval",
      "type": "event"
    },
    {
      "anonymous": false,
      "inputs": [
        {
          "indexed": true,
          "internalType": "address",
          "name": "owner",
          "type": "address"
        },
        {
          "indexed": true,
          "internalType": "address",
          "name": "operator",
          "type": "address"
        },
        {
          "indexed": false,
          "internalType": "bool",
          "name": "approved",
          "type": "bool"
        }
      ],
      "name": "ApprovalForAll",
      "type": "event"
    },
    {
      "anonymous": false,
      "inputs": [
        {
          "indexed": true,
          "internalType": "address",
          "name": "from",
          "type": "address"
        },
        {
          "indexed": true,
          "internalType": "address",
          "name": "to",
          "type": "address"
        },
        {
          "indexed": true,
          "internalType": "uint256",
          "name": "tokenId",
          "type": "uint256"
        }
      ],
      "name": "Transfer",
      "type": "event"
    },
    {
      "inputs": [
        {
          "internalType": "address",
          "name": "to",
          "type": "address"
        },
        {
          "internalType": "uint256",
          "name": "tokenId",
          "type": "uint256"
        }
      ],
      "name": "approve",
      "outputs": [],
      "stateMutability": "nonpayable",
      "type": "function"
    },
    {
      "inputs": [
        {
          "internalType": "address",
          "name": "owner",
          "type": "address"
        }
      ],
      "name": "balanceOf",
      "outputs": [
        {
          "internalType": "uint256",
          "name": "",
          "type": "uint256"
        }
      ],
      "stateMutability": "view",
      "type": "function"
    },
    {
      "inputs": [
        {
          "internalType": "uint256",
          "name": "tokenId",
          "type": "uint256"
        }
      ],
      "name": "getApproved",
      "outputs": [
        {
          "internalType": "address",
          "name": "",
          "type": "address"
        }
      ],
      "stateMutability": "view",
      "type": "function"
    },
    {
      "inputs": [
        {
          "internalType": "uint256",
          "name": "_id",
          "type": "uint256"
        }
      ],
      "name": "getOccasion",
      "outputs": [
        {
          "components": [
            {
              "internalType": "uint256",
              "name": "id",
              "type": "uint256"
            },
            {
              "internalType": "string",
              "name": "name",
              "type": "string"
            },
            {
              "internalType": "string",
              "name": "start",
              "type": "string"
            },
            {
              "internalType": "string",
              "name": "end",
              "type": "string"
            },
            {
              "internalType": "uint256",
              "name": "cost",
              "type": "uint256"
            },
            {
              "internalType": "uint256",
              "name": "tickets",
              "type": "uint256"
            },
            {
              "internalType": "uint256",
              "name": "maxTickets",
              "type": "uint256"
            },
            {
              "internalType": "string",
              "name": "date",
              "type": "string"
            },
            {
              "internalType": "string",
              "name": "time",
              "type": "string"
            },
            {
              "internalType": "string",
              "name": "departure",
              "type": "string"
            },
            {
              "internalType": "string",
              "name": "destination",
              "type": "string"
            }
          ],
          "internalType": "struct BusBooking.Occasion",
          "name": "",
          "type": "tuple"
        }
      ],
      "stateMutability": "view",
      "type": "function"
    },
    {
      "inputs": [
        {
          "internalType": "uint256",
          "name": "_id",
          "type": "uint256"
        }
      ],
      "name": "getSeatsTaken",
      "outputs": [
        {
          "internalType": "uint256[]",
          "name": "",
          "type": "uint256[]"
        }
      ],
      "stateMutability": "view",
      "type": "function"
    },
    {
      "inputs": [
        {
          "internalType": "uint256",
          "name": "",
          "type": "uint256"
        },
        {
          "internalType": "address",
          "name": "",
          "type": "address"
        }
      ],
      "name": "hasBought",
      "outputs": [
        {
          "internalType": "bool",
          "name": "",
          "type": "bool"
        }
      ],
      "stateMutability": "view",
      "type": "function"
    },
    {
      "inputs": [
        {
          "internalType": "address",
          "name": "owner",
          "type": "address"
        },
        {
          "internalType": "address",
          "name": "operator",
          "type": "address"
        }
      ],
      "name": "isApprovedForAll",
      "outputs": [
        {
          "internalType": "bool",
          "name": "",
          "type": "bool"
        }
      ],
      "stateMutability": "view",
      "type": "function"
    },
    {
      "inputs": [
        {
          "internalType": "string",
          "name": "_name",
          "type": "string"
        },
        {
          "internalType": "string",
          "name": "_start",
          "type": "string"
        },
        {
          "internalType": "string",
          "name": "_end",
          "type": "string"
        },
        {
          "internalType": "uint256",
          "name": "_cost",
          "type": "uint256"
        },
        {
          "internalType": "uint256",
          "name": "_maxTickets",
          "type": "uint256"
        },
        {
          "internalType": "string",
          "name": "_date",
          "type": "string"
        },
        {
          "internalType": "string",
          "name": "_time",
          "type": "string"
        },
        {
          "internalType": "string",
          "name": "_departure",
          "type": "string"
        },
        {
          "internalType": "string",
          "name": "_destination",
          "type": "string"
        }
      ],
      "name": "list",
      "outputs": [],
      "stateMutability": "nonpayable",
      "type": "function"
    },
    {
      "inputs": [
        {
          "internalType": "uint256",
          "name": "_id",
          "type": "uint256"
        },
        {
          "internalType": "uint256",
          "name": "_seat",
          "type": "uint256"
        }
      ],
      "name": "mint",
      "outputs": [],
      "stateMutability": "payable",
      "type": "function"
    },
    {
      "inputs": [],
      "name": "name",
      "outputs": [
        {
          "internalType": "string",
          "name": "",
          "type": "string"
        }
      ],
      "stateMutability": "view",
      "type": "function"
    },
    {
      "inputs": [],
      "name": "owner",
      "outputs": [
        {
          "internalType": "address",
          "name": "",
          "type": "address"
        }
      ],
      "stateMutability": "view",
      "type": "function"
    },
    {
      "inputs": [
        {
          "internalType": "uint256",
          "name": "tokenId",
          "type": "uint256"
        }
      ],
      "name": "ownerOf",
      "outputs": [
        {
          "internalType": "address",
          "name": "",
          "type": "address"
        }
      ],
      "stateMutability": "view",
      "type": "function"
    },
    {
      "inputs": [
        {
          "internalType": "address",
          "name": "from",
          "type": "address"
        },
        {
          "internalType": "address",
          "name": "to",
          "type": "address"
        },
        {
          "internalType": "uint256",
          "name": "tokenId",
          "type": "uint256"
        }
      ],
      "name": "safeTransferFrom",
      "outputs": [],
      "stateMutability": "nonpayable",
      "type": "function"
    },
    {
      "inputs": [
        {
          "internalType": "address",
          "name": "from",
          "type": "address"
        },
        {
          "internalType": "address",
          "name": "to",
          "type": "address"
        },
        {
          "internalType": "uint256",
          "name": "tokenId",
          "type": "uint256"
        },
        {
          "internalType": "bytes",
          "name": "data",
          "type": "bytes"
        }
      ],
      "name": "safeTransferFrom",
      "outputs": [],
      "stateMutability": "nonpayable",
      "type": "function"
    },
    {
      "inputs": [
        {
          "internalType": "uint256",
          "name": "",
          "type": "uint256"
        },
        {
          "internalType": "uint256",
          "name": "",
          "type": "uint256"
        }
      ],
      "name": "seatTaken",
      "outputs": [
        {
          "internalType": "address",
          "name": "",
          "type": "address"
        }
      ],
      "stateMutability": "view",
      "type": "function"
    },
    {
      "inputs": [
        {
          "internalType": "address",
          "name": "operator",
          "type": "address"
        },
        {
          "internalType": "bool",
          "name": "approved",
          "type": "bool"
        }
      ],
      "name": "setApprovalForAll",
      "outputs": [],
      "stateMutability": "nonpayable",
      "type": "function"
    },
    {
      "inputs": [
        {
          "internalType": "bytes4",
          "name": "interfaceId",
          "type": "bytes4"
        }
      ],
      "name": "supportsInterface",
      "outputs": [
        {
          "internalType": "bool",
          "name": "",
          "type": "bool"
        }
      ],
      "stateMutability": "view",
      "type": "function"
    },
    {
      "inputs": [],
      "name": "symbol",
      "outputs": [
        {
          "internalType": "string",
          "name": "",
          "type": "string"
        }
      ],
      "stateMutability": "view",
      "type": "function"
    },
    {
      "inputs": [
        {
          "internalType": "uint256",
          "name": "tokenId",
          "type": "uint256"
        }
      ],
      "name": "tokenURI",
      "outputs": [
        {
          "internalType": "string",
          "name": "",
          "type": "string"
        }
      ],
      "stateMutability": "view",
      "type": "function"
    },
    {
      "inputs": [],
      "name": "totalOccasions",
      "outputs": [
        {
          "internalType": "uint256",
          "name": "",
          "type": "uint256"
        }
      ],
      "stateMutability": "view",
      "type": "function"
    },
    {
      "inputs": [],
      "name": "totalSupply",
      "outputs": [
        {
          "internalType": "uint256",
          "name": "",
          "type": "uint256"
        }
      ],
      "stateMutability": "view",
      "type": "function"
    },
    {
      "inputs": [
        {
          "internalType": "address",
          "name": "from",
          "type": "address"
        },
        {
          "internalType": "address",
          "name": "to",
          "type": "address"
        },
        {
          "internalType": "uint256",
          "name": "tokenId",
          "type": "uint256"
        }
      ],
      "name": "transferFrom",
      "outputs": [],
      "stateMutability": "nonpayable",
      "type": "function"
    },
    {
      "inputs": [],
      "name": "withdraw",
      "outputs": [],
      "stateMutability": "nonpayable",
      "type": "function"
    }
  ],
  "bytecode": "0x60806040523480156200001157600080fd5b50604051620040923803806200409283398181016040528101906200003791906200023b565b818181600090816200004a91906200050b565b5080600190816200005c91906200050b565b50505033600660006101000a81548173ffffffffffffffffffffffffffffffffffffffff021916908373ffffffffffffffffffffffffffffffffffffffff1602179055505050620005f2565b6000604051905090565b600080fd5b600080fd5b600080fd5b600080fd5b6000601f19601f8301169050919050565b7f4e487b7100000000000000000000000000000000000000000000000000000000600052604160045260246000fd5b6200011182620000c6565b810181811067ffffffffffffffff82111715620001335762000132620000d7565b5b80604052505050565b600062000148620000a8565b905062000156828262000106565b919050565b600067ffffffffffffffff821115620001795762000178620000d7565b5b6200018482620000c6565b9050602081019050919050565b60005b83811015620001b157808201518184015260208101905062000194565b60008484015250505050565b6000620001d4620001ce846200015b565b6200013c565b905082815260208101848484011115620001f357620001f2620000c1565b5b6200020084828562000191565b509392505050565b600082601f83011262000220576200021f620000bc565b5b815162000232848260208601620001bd565b91505092915050565b60008060408385031215620002555762000254620000b2565b5b600083015167ffffffffffffffff811115620002765762000275620000b7565b5b620002848582860162000208565b925050602083015167ffffffffffffffff811115620002a857620002a7620000b7565b5b620002b68582860162000208565b9150509250929050565b600081519050919050565b7f4e487b7100000000000000000000000000000000000000000000000000000000600052602260045260246000fd5b600060028204905060018216806200031357607f821691505b602082108103620003295762000328620002cb565b5b50919050565b60008190508160005260206000209050919050565b60006020601f8301049050919050565b600082821b905092915050565b600060088302620003937fffffffffffffffffffffffffffffffffffffffffffffffffffffffffffffffff8262000354565b6200039f868362000354565b95508019841693508086168417925050509392505050565b6000819050919050565b6000819050919050565b6000620003ec620003e6620003e084620003b7565b620003c1565b620003b7565b9050919050565b6000819050919050565b6200040883620003cb565b620004206200041782620003f3565b84845462000361565b825550505050565b600090565b6200043762000428565b62000444818484620003fd565b505050565b5b818110156200046c57620004606000826200042d565b6001810190506200044a565b5050565b601f821115620004bb5762000485816200032f565b620004908462000344565b81016020851015620004a0578190505b620004b8620004af8562000344565b83018262000449565b50505b505050565b600082821c905092915050565b6000620004e060001984600802620004c0565b1980831691505092915050565b6000620004fb8383620004cd565b9150826002028217905092915050565b6200051682620002c0565b67ffffffffffffffff811115620005325762000531620000d7565b5b6200053e8254620002fa565b6200054b82828562000470565b600060209050601f8311600181146200058357600084156200056e578287015190505b6200057a8582620004ed565b865550620005ea565b601f19841662000593866200032f565b60005b82811015620005bd5784890151825560018201915060208501945060208101905062000596565b86831015620005dd5784890151620005d9601f891682620004cd565b8355505b6001600288020188555050505b505050505050565b613a9080620006026000396000f3fe6080604052600436106101405760003560e01c80636352211e116100b65780639cb04aef1161006f5780639cb04aef14610461578063a22cb4651461049e578063af296da1146104c7578063b88d4fde14610504578063c87b56dd1461052d578063e985e9c51461056a57610140565b80636352211e1461032957806370a082311461036657806374bc8656146103a35780638da5cb5b146103e0578063953865c11461040b57806395d89b411461043657610140565b80631211488811610108578063121148881461025057806318160ddd146102795780631b2ef1ca146102a457806323b872dd146102c05780633ccfd60b146102e957806342842e0e1461030057610140565b806301ffc9a71461014557806306fdde0314610182578063081812fc146101ad578063095ea7b3146101ea5780630ef7ec7414610213575b600080fd5b34801561015157600080fd5b5061016c60048036038101906101679190612509565b6105a7565b6040516101799190612551565b60405180910390f35b34801561018e57600080fd5b50610197610689565b6040516101a491906125fc565b60405180910390f35b3480156101b957600080fd5b506101d460048036038101906101cf9190612654565b61071b565b6040516101e191906126c2565b60405180910390f35b3480156101f657600080fd5b50610211600480360381019061020c9190612709565b610761565b005b34801561021f57600080fd5b5061023a60048036038101906102359190612654565b610878565b6040516102479190612807565b60405180910390f35b34801561025c57600080fd5b506102776004803603810190610272919061295e565b6108e3565b005b34801561028557600080fd5b5061028e610a8b565b60405161029b9190612afb565b60405180910390f35b6102be60048036038101906102b99190612b16565b610a91565b005b3480156102cc57600080fd5b506102e760048036038101906102e29190612b56565b610ccc565b005b3480156102f557600080fd5b506102fe610d2c565b005b34801561030c57600080fd5b5061032760048036038101906103229190612b56565b610e21565b005b34801561033557600080fd5b50610350600480360381019061034b9190612654565b610e41565b60405161035d91906126c2565b60405180910390f35b34801561037257600080fd5b5061038d60048036038101906103889190612ba9565b610ec7565b60405161039a9190612afb565b60405180910390f35b3480156103af57600080fd5b506103ca60048036038101906103c59190612654565b610f7e565b6040516103d79190612d39565b60405180910390f35b3480156103ec57600080fd5b506103f56113d2565b60405161040291906126c2565b60405180910390f35b34801561041757600080fd5b506104206113f8565b60405161042d9190612afb565b60405180910390f35b34801561044257600080fd5b5061044b6113fe565b60405161045891906125fc565b60405180910390f35b34801561046d57600080fd5b5061048860048036038101906104839190612d5b565b611490565b6040516104959190612551565b60405180910390f35b3480156104aa57600080fd5b506104c560048036038101906104c09190612dc7565b6114bf565b005b3480156104d357600080fd5b506104ee60048036038101906104e99190612b16565b6114d5565b6040516104fb91906126c2565b60405180910390f35b34801561051057600080fd5b5061052b60048036038101906105269190612ea8565b611517565b005b34801561053957600080fd5b50610554600480360381019061054f9190612654565b611579565b60405161056191906125fc565b60405180910390f35b34801561057657600080fd5b50610591600480360381019061058c9190612f2b565b6115e1565b60405161059e9190612551565b60405180910390f35b60007f80ac58cd000000000000000000000000000000000000000000000000000000007bffffffffffffffffffffffffffffffffffffffffffffffffffffffff1916827bffffffffffffffffffffffffffffffffffffffffffffffffffffffff1916148061067257507f5b5e139f000000000000000000000000000000000000000000000000000000007bffffffffffffffffffffffffffffffffffffffffffffffffffffffff1916827bffffffffffffffffffffffffffffffffffffffffffffffffffffffff1916145b80610682575061068182611675565b5b9050919050565b60606000805461069890612f9a565b80601f01602080910402602001604051908101604052809291908181526020018280546106c490612f9a565b80156107115780601f106106e657610100808354040283529160200191610711565b820191906000526020600020905b8154815290600101906020018083116106f457829003601f168201915b5050505050905090565b6000610726826116df565b6004600083815260200190815260200160002060009054906101000a900473ffffffffffffffffffffffffffffffffffffffff169050919050565b600061076c82610e41565b90508073ffffffffffffffffffffffffffffffffffffffff168373ffffffffffffffffffffffffffffffffffffffff16036107dc576040517f08c379a00000000000000000000000000000000000000000000000000000000081526004016107d39061303d565b60405180910390fd5b8073ffffffffffffffffffffffffffffffffffffffff166107fb61172a565b73ffffffffffffffffffffffffffffffffffffffff16148061082a57506108298161082461172a565b6115e1565b5b610869576040517f08c379a0000000000000000000000000000000000000000000000000000000008152600401610860906130cf565b60405180910390fd5b6108738383611732565b505050565b6060600c60008381526020019081526020016000208054806020026020016040519081016040528092919081815260200182805480156108d757602002820191906000526020600020905b8154815260200190600101908083116108c3575b50505050509050919050565b600660009054906101000a900473ffffffffffffffffffffffffffffffffffffffff1673ffffffffffffffffffffffffffffffffffffffff163373ffffffffffffffffffffffffffffffffffffffff161461093d57600080fd5b600760008154809291906109509061311e565b919050555060405180610160016040528060075481526020018a8152602001898152602001888152602001878152602001868152602001868152602001858152602001848152602001838152602001828152506009600060075481526020019081526020016000206000820151816000015560208201518160010190816109d79190613312565b5060408201518160020190816109ed9190613312565b506060820151816003019081610a039190613312565b506080820151816004015560a0820151816005015560c0820151816006015560e0820151816007019081610a379190613312565b50610100820151816008019081610a4e9190613312565b50610120820151816009019081610a659190613312565b5061014082015181600a019081610a7c9190613312565b50905050505050505050505050565b60085481565b60008203610a9e57600080fd5b600754821115610aad57600080fd5b6009600083815260200190815260200160002060040154341015610ad057600080fd5b600073ffffffffffffffffffffffffffffffffffffffff16600b6000848152602001908152602001600020600083815260200190815260200160002060009054906101000a900473ffffffffffffffffffffffffffffffffffffffff1673ffffffffffffffffffffffffffffffffffffffff1614610b4d57600080fd5b6009600083815260200190815260200160002060060154811115610b7057600080fd5b6001600960008481526020019081526020016000206005016000828254610b9791906133e4565b925050819055506001600a600084815260200190815260200160002060003373ffffffffffffffffffffffffffffffffffffffff1673ffffffffffffffffffffffffffffffffffffffff16815260200190815260200160002060006101000a81548160ff02191690831515021790555033600b6000848152602001908152602001600020600083815260200190815260200160002060006101000a81548173ffffffffffffffffffffffffffffffffffffffff021916908373ffffffffffffffffffffffffffffffffffffffff160217905550600c600083815260200190815260200160002081908060018154018082558091505060019003906000526020600020016000909190919091505560086000815480929190610cb79061311e565b9190505550610cc8336008546117eb565b5050565b610cdd610cd761172a565b82611809565b610d1c576040517f08c379a0000000000000000000000000000000000000000000000000000000008152600401610d139061348a565b60405180910390fd5b610d2783838361189e565b505050565b600660009054906101000a900473ffffffffffffffffffffffffffffffffffffffff1673ffffffffffffffffffffffffffffffffffffffff163373ffffffffffffffffffffffffffffffffffffffff1614610d8657600080fd5b6000600660009054906101000a900473ffffffffffffffffffffffffffffffffffffffff1673ffffffffffffffffffffffffffffffffffffffff1647604051610dce906134db565b60006040518083038185875af1925050503d8060008114610e0b576040519150601f19603f3d011682016040523d82523d6000602084013e610e10565b606091505b5050905080610e1e57600080fd5b50565b610e3c83838360405180602001604052806000815250611517565b505050565b600080610e4d83611b97565b9050600073ffffffffffffffffffffffffffffffffffffffff168173ffffffffffffffffffffffffffffffffffffffff1603610ebe576040517f08c379a0000000000000000000000000000000000000000000000000000000008152600401610eb59061353c565b60405180910390fd5b80915050919050565b60008073ffffffffffffffffffffffffffffffffffffffff168273ffffffffffffffffffffffffffffffffffffffff1603610f37576040517f08c379a0000000000000000000000000000000000000000000000000000000008152600401610f2e906135ce565b60405180910390fd5b600360008373ffffffffffffffffffffffffffffffffffffffff1673ffffffffffffffffffffffffffffffffffffffff168152602001908152602001600020549050919050565b610f86612443565b600960008381526020019081526020016000206040518061016001604052908160008201548152602001600182018054610fbf90612f9a565b80601f0160208091040260200160405190810160405280929190818152602001828054610feb90612f9a565b80156110385780601f1061100d57610100808354040283529160200191611038565b820191906000526020600020905b81548152906001019060200180831161101b57829003601f168201915b5050505050815260200160028201805461105190612f9a565b80601f016020809104026020016040519081016040528092919081815260200182805461107d90612f9a565b80156110ca5780601f1061109f576101008083540402835291602001916110ca565b820191906000526020600020905b8154815290600101906020018083116110ad57829003601f168201915b505050505081526020016003820180546110e390612f9a565b80601f016020809104026020016040519081016040528092919081815260200182805461110f90612f9a565b801561115c5780601f106111315761010080835404028352916020019161115c565b820191906000526020600020905b81548152906001019060200180831161113f57829003601f168201915b5050505050815260200160048201548152602001600582015481526020016006820154815260200160078201805461119390612f9a565b80601f01602080910402602001604051908101604052809291908181526020018280546111bf90612f9a565b801561120c5780601f106111e15761010080835404028352916020019161120c565b820191906000526020600020905b8154815290600101906020018083116111ef57829003601f168201915b5050505050815260200160088201805461122590612f9a565b80601f016020809104026020016040519081016040528092919081815260200182805461125190612f9a565b801561129e5780601f106112735761010080835404028352916020019161129e565b820191906000526020600020905b81548152906001019060200180831161128157829003601f168201915b505050505081526020016009820180546112b790612f9a565b80601f01602080910402602001604051908101604052809291908181526020018280546112e390612f9a565b80156113305780601f1061130557610100808354040283529160200191611330565b820191906000526020600020905b81548152906001019060200180831161131357829003601f168201915b50505050508152602001600a8201805461134990612f9a565b80601f016020809104026020016040519081016040528092919081815260200182805461137590612f9a565b80156113c25780601f10611397576101008083540402835291602001916113c2565b820191906000526020600020905b8154815290600101906020018083116113a557829003601f168201915b5050505050815250509050919050565b600660009054906101000a900473ffffffffffffffffffffffffffffffffffffffff1681565b60075481565b60606001805461140d90612f9a565b80601f016020809104026020016040519081016040528092919081815260200182805461143990612f9a565b80156114865780601f1061145b57610100808354040283529160200191611486565b820191906000526020600020905b81548152906001019060200180831161146957829003601f168201915b5050505050905090565b600a6020528160005260406000206020528060005260406000206000915091509054906101000a900460ff1681565b6114d16114ca61172a565b8383611bd4565b5050565b600b6020528160005260406000206020528060005260406000206000915091509054906101000a900473ffffffffffffffffffffffffffffffffffffffff1681565b61152861152261172a565b83611809565b611567576040517f08c379a000000000000000000000000000000000000000000000000000000000815260040161155e9061348a565b60405180910390fd5b61157384848484611d40565b50505050565b6060611584826116df565b600061158e611d9c565b905060008151116115ae57604051806020016040528060008152506115d9565b806115b884611db3565b6040516020016115c992919061362a565b6040516020818303038152906040525b915050919050565b6000600560008473ffffffffffffffffffffffffffffffffffffffff1673ffffffffffffffffffffffffffffffffffffffff16815260200190815260200160002060008373ffffffffffffffffffffffffffffffffffffffff1673ffffffffffffffffffffffffffffffffffffffff16815260200190815260200160002060009054906101000a900460ff16905092915050565b60007f01ffc9a7000000000000000000000000000000000000000000000000000000007bffffffffffffffffffffffffffffffffffffffffffffffffffffffff1916827bffffffffffffffffffffffffffffffffffffffffffffffffffffffff1916149050919050565b6116e881611e81565b611727576040517f08c379a000000000000000000000000000000000000000000000000000000000815260040161171e9061353c565b60405180910390fd5b50565b600033905090565b816004600083815260200190815260200160002060006101000a81548173ffffffffffffffffffffffffffffffffffffffff021916908373ffffffffffffffffffffffffffffffffffffffff160217905550808273ffffffffffffffffffffffffffffffffffffffff166117a583610e41565b73ffffffffffffffffffffffffffffffffffffffff167f8c5be1e5ebec7d5bd14f71427d1e84f3dd0314c0f7b2291e5b200ac8c7c3b92560405160405180910390a45050565b611805828260405180602001604052806000815250611ec2565b5050565b60008061181583610e41565b90508073ffffffffffffffffffffffffffffffffffffffff168473ffffffffffffffffffffffffffffffffffffffff161480611857575061185681856115e1565b5b8061189557508373ffffffffffffffffffffffffffffffffffffffff1661187d8461071b565b73ffffffffffffffffffffffffffffffffffffffff16145b91505092915050565b8273ffffffffffffffffffffffffffffffffffffffff166118be82610e41565b73ffffffffffffffffffffffffffffffffffffffff1614611914576040517f08c379a000000000000000000000000000000000000000000000000000000000815260040161190b906136c0565b60405180910390fd5b600073ffffffffffffffffffffffffffffffffffffffff168273ffffffffffffffffffffffffffffffffffffffff1603611983576040517f08c379a000000000000000000000000000000000000000000000000000000000815260040161197a90613752565b60405180910390fd5b6119908383836001611f1d565b8273ffffffffffffffffffffffffffffffffffffffff166119b082610e41565b73ffffffffffffffffffffffffffffffffffffffff1614611a06576040517f08c379a00000000000000000000000000000000000000000000000000000000081526004016119fd906136c0565b60405180910390fd5b6004600082815260200190815260200160002060006101000a81549073ffffffffffffffffffffffffffffffffffffffff02191690556001600360008573ffffffffffffffffffffffffffffffffffffffff1673ffffffffffffffffffffffffffffffffffffffff168152602001908152602001600020600082825403925050819055506001600360008473ffffffffffffffffffffffffffffffffffffffff1673ffffffffffffffffffffffffffffffffffffffff16815260200190815260200160002060008282540192505081905550816002600083815260200190815260200160002060006101000a81548173ffffffffffffffffffffffffffffffffffffffff021916908373ffffffffffffffffffffffffffffffffffffffff160217905550808273ffffffffffffffffffffffffffffffffffffffff168473ffffffffffffffffffffffffffffffffffffffff167fddf252ad1be2c89b69c2b068fc378daa952ba7f163c4a11628f55a4df523b3ef60405160405180910390a4611b928383836001611f23565b505050565b60006002600083815260200190815260200160002060009054906101000a900473ffffffffffffffffffffffffffffffffffffffff169050919050565b8173ffffffffffffffffffffffffffffffffffffffff168373ffffffffffffffffffffffffffffffffffffffff1603611c42576040517f08c379a0000000000000000000000000000000000000000000000000000000008152600401611c39906137be565b60405180910390fd5b80600560008573ffffffffffffffffffffffffffffffffffffffff1673ffffffffffffffffffffffffffffffffffffffff16815260200190815260200160002060008473ffffffffffffffffffffffffffffffffffffffff1673ffffffffffffffffffffffffffffffffffffffff16815260200190815260200160002060006101000a81548160ff0219169083151502179055508173ffffffffffffffffffffffffffffffffffffffff168373ffffffffffffffffffffffffffffffffffffffff167f17307eab39ab6107e8899845ad3d59bd9653f200f220920489ca2b5937696c3183604051611d339190612551565b60405180910390a3505050565b611d4b84848461189e565b611d5784848484611f29565b611d96576040517f08c379a0000000000000000000000000000000000000000000000000000000008152600401611d8d90613850565b60405180910390fd5b50505050565b606060405180602001604052806000815250905090565b606060006001611dc2846120b0565b01905060008167ffffffffffffffff811115611de157611de0612833565b5b6040519080825280601f01601f191660200182016040528015611e135781602001600182028036833780820191505090505b509050600082602001820190505b600115611e76578080600190039150507f3031323334353637383961626364656600000000000000000000000000000000600a86061a8153600a8581611e6a57611e69613870565b5b04945060008503611e21575b819350505050919050565b60008073ffffffffffffffffffffffffffffffffffffffff16611ea383611b97565b73ffffffffffffffffffffffffffffffffffffffff1614159050919050565b611ecc8383612203565b611ed96000848484611f29565b611f18576040517f08c379a0000000000000000000000000000000000000000000000000000000008152600401611f0f90613850565b60405180910390fd5b505050565b50505050565b50505050565b6000611f4a8473ffffffffffffffffffffffffffffffffffffffff16612420565b156120a3578373ffffffffffffffffffffffffffffffffffffffff1663150b7a02611f7361172a565b8786866040518563ffffffff1660e01b8152600401611f9594939291906138f4565b6020604051808303816000875af1925050508015611fd157506040513d601f19601f82011682018060405250810190611fce9190613955565b60015b612053573d8060008114612001576040519150601f19603f3d011682016040523d82523d6000602084013e612006565b606091505b50600081510361204b576040517f08c379a000000000000000000000000000000000000000000000000000000000815260040161204290613850565b60405180910390fd5b805181602001fd5b63150b7a0260e01b7bffffffffffffffffffffffffffffffffffffffffffffffffffffffff1916817bffffffffffffffffffffffffffffffffffffffffffffffffffffffff1916149150506120a8565b600190505b949350505050565b600080600090507a184f03e93ff9f4daa797ed6e38ed64bf6a1f010000000000000000831061210e577a184f03e93ff9f4daa797ed6e38ed64bf6a1f010000000000000000838161210457612103613870565b5b0492506040810190505b6d04ee2d6d415b85acef8100000000831061214b576d04ee2d6d415b85acef8100000000838161214157612140613870565b5b0492506020810190505b662386f26fc10000831061217a57662386f26fc1000083816121705761216f613870565b5b0492506010810190505b6305f5e10083106121a3576305f5e100838161219957612198613870565b5b0492506008810190505b61271083106121c85761271083816121be576121bd613870565b5b0492506004810190505b606483106121eb57606483816121e1576121e0613870565b5b0492506002810190505b600a83106121fa576001810190505b80915050919050565b600073ffffffffffffffffffffffffffffffffffffffff168273ffffffffffffffffffffffffffffffffffffffff1603612272576040517f08c379a0000000000000000000000000000000000000000000000000000000008152600401612269906139ce565b60405180910390fd5b61227b81611e81565b156122bb576040517f08c379a00000000000000000000000000000000000000000000000000000000081526004016122b290613a3a565b60405180910390fd5b6122c9600083836001611f1d565b6122d281611e81565b15612312576040517f08c379a000000000000000000000000000000000000000000000000000000000815260040161230990613a3a565b60405180910390fd5b6001600360008473ffffffffffffffffffffffffffffffffffffffff1673ffffffffffffffffffffffffffffffffffffffff16815260200190815260200160002060008282540192505081905550816002600083815260200190815260200160002060006101000a81548173ffffffffffffffffffffffffffffffffffffffff021916908373ffffffffffffffffffffffffffffffffffffffff160217905550808273ffffffffffffffffffffffffffffffffffffffff16600073ffffffffffffffffffffffffffffffffffffffff167fddf252ad1be2c89b69c2b068fc378daa952ba7f163c4a11628f55a4df523b3ef60405160405180910390a461241c600083836001611f23565b5050565b6000808273ffffffffffffffffffffffffffffffffffffffff163b119050919050565b60405180610160016040528060008152602001606081526020016060815260200160608152602001600081526020016000815260200160008152602001606081526020016060815260200160608152602001606081525090565b6000604051905090565b600080fd5b600080fd5b60007fffffffff0000000000000000000000000000000000000000000000000000000082169050919050565b6124e6816124b1565b81146124f157600080fd5b50565b600081359050612503816124dd565b92915050565b60006020828403121561251f5761251e6124a7565b5b600061252d848285016124f4565b91505092915050565b60008115159050919050565b61254b81612536565b82525050565b60006020820190506125666000830184612542565b92915050565b600081519050919050565b600082825260208201905092915050565b60005b838110156125a657808201518184015260208101905061258b565b60008484015250505050565b6000601f19601f8301169050919050565b60006125ce8261256c565b6125d88185612577565b93506125e8818560208601612588565b6125f1816125b2565b840191505092915050565b6000602082019050818103600083015261261681846125c3565b905092915050565b6000819050919050565b6126318161261e565b811461263c57600080fd5b50565b60008135905061264e81612628565b92915050565b60006020828403121561266a576126696124a7565b5b60006126788482850161263f565b91505092915050565b600073ffffffffffffffffffffffffffffffffffffffff82169050919050565b60006126ac82612681565b9050919050565b6126bc816126a1565b82525050565b60006020820190506126d760008301846126b3565b92915050565b6126e6816126a1565b81146126f157600080fd5b50565b600081359050612703816126dd565b92915050565b600080604083850312156127205761271f6124a7565b5b600061272e858286016126f4565b925050602061273f8582860161263f565b9150509250929050565b600081519050919050565b600082825260208201905092915050565b6000819050602082019050919050565b61277e8161261e565b82525050565b60006127908383612775565b60208301905092915050565b6000602082019050919050565b60006127b482612749565b6127be8185612754565b93506127c983612765565b8060005b838110156127fa5781516127e18882612784565b97506127ec8361279c565b9250506001810190506127cd565b5085935050505092915050565b6000602082019050818103600083015261282181846127a9565b905092915050565b600080fd5b600080fd5b7f4e487b7100000000000000000000000000000000000000000000000000000000600052604160045260246000fd5b61286b826125b2565b810181811067ffffffffffffffff8211171561288a57612889612833565b5b80604052505050565b600061289d61249d565b90506128a98282612862565b919050565b600067ffffffffffffffff8211156128c9576128c8612833565b5b6128d2826125b2565b9050602081019050919050565b82818337600083830152505050565b60006129016128fc846128ae565b612893565b90508281526020810184848401111561291d5761291c61282e565b5b6129288482856128df565b509392505050565b600082601f83011261294557612944612829565b5b81356129558482602086016128ee565b91505092915050565b60008060008060008060008060006101208a8c031215612981576129806124a7565b5b60008a013567ffffffffffffffff81111561299f5761299e6124ac565b5b6129ab8c828d01612930565b99505060208a013567ffffffffffffffff8111156129cc576129cb6124ac565b5b6129d88c828d01612930565b98505060408a013567ffffffffffffffff8111156129f9576129f86124ac565b5b612a058c828d01612930565b9750506060612a168c828d0161263f565b9650506080612a278c828d0161263f565b95505060a08a013567ffffffffffffffff811115612a4857612a476124ac565b5b612a548c828d01612930565b94505060c08a013567ffffffffffffffff811115612a7557612a746124ac565b5b612a818c828d01612930565b93505060e08a013567ffffffffffffffff811115612aa257612aa16124ac565b5b612aae8c828d01612930565b9250506101008a013567ffffffffffffffff811115612ad057612acf6124ac565b5b612adc8c828d01612930565b9150509295985092959850929598565b612af58161261e565b82525050565b6000602082019050612b106000830184612aec565b92915050565b60008060408385031215612b2d57612b2c6124a7565b5b6000612b3b8582860161263f565b9250506020612b4c8582860161263f565b9150509250929050565b600080600060608486031215612b6f57612b6e6124a7565b5b6000612b7d868287016126f4565b9350506020612b8e868287016126f4565b9250506040612b9f8682870161263f565b9150509250925092565b600060208284031215612bbf57612bbe6124a7565b5b6000612bcd848285016126f4565b91505092915050565b600082825260208201905092915050565b6000612bf28261256c565b612bfc8185612bd6565b9350612c0c818560208601612588565b612c15816125b2565b840191505092915050565b600061016083016000830151612c396000860182612775565b5060208301518482036020860152612c518282612be7565b91505060408301518482036040860152612c6b8282612be7565b91505060608301518482036060860152612c858282612be7565b9150506080830151612c9a6080860182612775565b5060a0830151612cad60a0860182612775565b5060c0830151612cc060c0860182612775565b5060e083015184820360e0860152612cd88282612be7565b915050610100830151848203610100860152612cf48282612be7565b915050610120830151848203610120860152612d108282612be7565b915050610140830151848203610140860152612d2c8282612be7565b9150508091505092915050565b60006020820190508181036000830152612d538184612c20565b905092915050565b60008060408385031215612d7257612d716124a7565b5b6000612d808582860161263f565b9250506020612d91858286016126f4565b9150509250929050565b612da481612536565b8114612daf57600080fd5b50565b600081359050612dc181612d9b565b92915050565b60008060408385031215612dde57612ddd6124a7565b5b6000612dec858286016126f4565b9250506020612dfd85828601612db2565b9150509250929050565b600067ffffffffffffffff821115612e2257612e21612833565b5b612e2b826125b2565b9050602081019050919050565b6000612e4b612e4684612e07565b612893565b905082815260208101848484011115612e6757612e6661282e565b5b612e728482856128df565b509392505050565b600082601f830112612e8f57612e8e612829565b5b8135612e9f848260208601612e38565b91505092915050565b60008060008060808587031215612ec257612ec16124a7565b5b6000612ed0878288016126f4565b9450506020612ee1878288016126f4565b9350506040612ef28782880161263f565b925050606085013567ffffffffffffffff811115612f1357612f126124ac565b5b612f1f87828801612e7a565b91505092959194509250565b60008060408385031215612f4257612f416124a7565b5b6000612f50858286016126f4565b9250506020612f61858286016126f4565b9150509250929050565b7f4e487b7100000000000000000000000000000000000000000000000000000000600052602260045260246000fd5b60006002820490506001821680612fb257607f821691505b602082108103612fc557612fc4612f6b565b5b50919050565b7f4552433732313a20617070726f76616c20746f2063757272656e74206f776e6560008201527f7200000000000000000000000000000000000000000000000000000000000000602082015250565b6000613027602183612577565b915061303282612fcb565b604082019050919050565b600060208201905081810360008301526130568161301a565b9050919050565b7f4552433732313a20617070726f76652063616c6c6572206973206e6f7420746f60008201527f6b656e206f776e6572206f7220617070726f76656420666f7220616c6c000000602082015250565b60006130b9603d83612577565b91506130c48261305d565b604082019050919050565b600060208201905081810360008301526130e8816130ac565b9050919050565b7f4e487b7100000000000000000000000000000000000000000000000000000000600052601160045260246000fd5b60006131298261261e565b91507fffffffffffffffffffffffffffffffffffffffffffffffffffffffffffffffff820361315b5761315a6130ef565b5b600182019050919050565b60008190508160005260206000209050919050565b60006020601f8301049050919050565b600082821b905092915050565b6000600883026131c87fffffffffffffffffffffffffffffffffffffffffffffffffffffffffffffffff8261318b565b6131d2868361318b565b95508019841693508086168417925050509392505050565b6000819050919050565b600061320f61320a6132058461261e565b6131ea565b61261e565b9050919050565b6000819050919050565b613229836131f4565b61323d61323582613216565b848454613198565b825550505050565b600090565b613252613245565b61325d818484613220565b505050565b5b818110156132815761327660008261324a565b600181019050613263565b5050565b601f8211156132c65761329781613166565b6132a08461317b565b810160208510156132af578190505b6132c36132bb8561317b565b830182613262565b50505b505050565b600082821c905092915050565b60006132e9600019846008026132cb565b1980831691505092915050565b600061330283836132d8565b9150826002028217905092915050565b61331b8261256c565b67ffffffffffffffff81111561333457613333612833565b5b61333e8254612f9a565b613349828285613285565b600060209050601f83116001811461337c576000841561336a578287015190505b61337485826132f6565b8655506133dc565b601f19841661338a86613166565b60005b828110156133b25784890151825560018201915060208501945060208101905061338d565b868310156133cf57848901516133cb601f8916826132d8565b8355505b6001600288020188555050505b505050505050565b60006133ef8261261e565b91506133fa8361261e565b9250828203905081811115613412576134116130ef565b5b92915050565b7f4552433732313a2063616c6c6572206973206e6f7420746f6b656e206f776e6560008201527f72206f7220617070726f76656400000000000000000000000000000000000000602082015250565b6000613474602d83612577565b915061347f82613418565b604082019050919050565b600060208201905081810360008301526134a381613467565b9050919050565b600081905092915050565b50565b60006134c56000836134aa565b91506134d0826134b5565b600082019050919050565b60006134e6826134b8565b9150819050919050565b7f4552433732313a20696e76616c696420746f6b656e2049440000000000000000600082015250565b6000613526601883612577565b9150613531826134f0565b602082019050919050565b6000602082019050818103600083015261355581613519565b9050919050565b7f4552433732313a2061646472657373207a65726f206973206e6f74206120766160008201527f6c6964206f776e65720000000000000000000000000000000000000000000000602082015250565b60006135b8602983612577565b91506135c38261355c565b604082019050919050565b600060208201905081810360008301526135e7816135ab565b9050919050565b600081905092915050565b60006136048261256c565b61360e81856135ee565b935061361e818560208601612588565b80840191505092915050565b600061363682856135f9565b915061364282846135f9565b91508190509392505050565b7f4552433732313a207472616e736665722066726f6d20696e636f72726563742060008201527f6f776e6572000000000000000000000000000000000000000000000000000000602082015250565b60006136aa602583612577565b91506136b58261364e565b604082019050919050565b600060208201905081810360008301526136d98161369d565b9050919050565b7f4552433732313a207472616e7366657220746f20746865207a65726f2061646460008201527f7265737300000000000000000000000000000000000000000000000000000000602082015250565b600061373c602483612577565b9150613747826136e0565b604082019050919050565b6000602082019050818103600083015261376b8161372f565b9050919050565b7f4552433732313a20617070726f766520746f2063616c6c657200000000000000600082015250565b60006137a8601983612577565b91506137b382613772565b602082019050919050565b600060208201905081810360008301526137d78161379b565b9050919050565b7f4552433732313a207472616e7366657220746f206e6f6e20455243373231526560008201527f63656976657220696d706c656d656e7465720000000000000000000000000000602082015250565b600061383a603283612577565b9150613845826137de565b604082019050919050565b600060208201905081810360008301526138698161382d565b9050919050565b7f4e487b7100000000000000000000000000000000000000000000000000000000600052601260045260246000fd5b600081519050919050565b600082825260208201905092915050565b60006138c68261389f565b6138d081856138aa565b93506138e0818560208601612588565b6138e9816125b2565b840191505092915050565b600060808201905061390960008301876126b3565b61391660208301866126b3565b6139236040830185612aec565b818103606083015261393581846138bb565b905095945050505050565b60008151905061394f816124dd565b92915050565b60006020828403121561396b5761396a6124a7565b5b600061397984828501613940565b91505092915050565b7f4552433732313a206d696e7420746f20746865207a65726f2061646472657373600082015250565b60006139b8602083612577565b91506139c382613982565b602082019050919050565b600060208201905081810360008301526139e7816139ab565b9050919050565b7f4552433732313a20746f6b656e20616c7265616479206d696e74656400000000600082015250565b6000613a24601c83612577565b9150613a2f826139ee565b602082019050919050565b60006020820190508181036000830152613a5381613a17565b905091905056fea26469706673582212209da85c9147d6de084ad862a1dfeaff0bf250f27c97449f332f51fd47f16aec5d64736f6c63430008110033",
  "linkReferences": {},
  "deployedLinkReferences": {}
}